{
  "contractName": "ECDSA",
  "abi": [
    {
      "constant": true,
      "inputs": [
        {
          "name": "_address",
          "type": "address"
        },
        {
          "name": "_bytes",
          "type": "bytes"
        },
        {
          "components": [
            {
              "name": "v",
              "type": "uint8"
            },
            {
              "name": "r",
              "type": "bytes32"
            },
            {
              "name": "s",
              "type": "bytes32"
            }
          ],
          "name": "signature",
          "type": "tuple"
        }
      ],
      "name": "verifySignature",
      "outputs": [
        {
          "name": "",
          "type": "bool"
        }
      ],
      "payable": false,
      "stateMutability": "pure",
      "type": "function"
    },
    {
      "constant": true,
      "inputs": [
        {
          "name": "_bytes",
          "type": "bytes"
        }
      ],
      "name": "signatureHash",
      "outputs": [
        {
          "name": "",
          "type": "bytes32"
        }
      ],
      "payable": false,
      "stateMutability": "pure",
      "type": "function"
    },
    {
      "constant": true,
      "inputs": [
        {
          "name": "_bytes",
          "type": "bytes"
        },
        {
          "name": "v",
          "type": "uint8"
        },
        {
          "name": "r",
          "type": "bytes32"
        },
        {
          "name": "s",
          "type": "bytes32"
        }
      ],
      "name": "recoverAddress",
      "outputs": [
        {
          "name": "",
          "type": "address"
        }
      ],
      "payable": false,
      "stateMutability": "pure",
      "type": "function"
    }
  ],
  "bytecode": "0x608060405234801561001057600080fd5b50610715806100206000396000f300608060405260043610610057576000357c0100000000000000000000000000000000000000000000000000000000900463ffffffff168063bc92eba21461005c578063bfd2f11b14610099578063d5e58687146100d6575b600080fd5b34801561006857600080fd5b50610083600480360361007e91908101906104ac565b610113565b6040516100909190610563565b60405180910390f35b3480156100a557600080fd5b506100c060048036036100bb9190810190610404565b610178565b6040516100cd919061057e565b60405180910390f35b3480156100e257600080fd5b506100fd60048036036100f8919081019061046b565b610216565b60405161010a9190610599565b60405180910390f35b6000600161012086610216565b8585856040516000815260200160405260405161014094939291906105b4565b60206040516020810390808403906000865af1158015610164573d6000803e3d6000fd5b505050602060405103519050949350505050565b60008373ffffffffffffffffffffffffffffffffffffffff16600161019c85610216565b846000015185602001518660400151604051600081526020016040526040516101c894939291906105b4565b60206040516020810390808403906000865af11580156101ec573d6000803e3d6000fd5b5050506020604051035173ffffffffffffffffffffffffffffffffffffffff161490509392505050565b600060606040805190810160405280601c81526020017f19457468657265756d205369676e6564204d6573736167653a0a363500000000815250905080836040518083805190602001908083835b6020831015156102895780518252602082019150602081019050602083039250610264565b6001836020036101000a03801982511681845116808217855250505050505090500182805190602001908083835b6020831015156102dc57805182526020820191506020810190506020830392506102b7565b6001836020036101000a038019825116818451168082178552505050505050905001925050506040518091039020915050919050565b600061031e8235610695565b905092915050565b600061033282356106b5565b905092915050565b600082601f830112151561034d57600080fd5b813561036061035b82610626565b6105f9565b9150808252602083016020830185838301111561037c57600080fd5b6103878382846106cc565b50505092915050565b6000606082840312156103a257600080fd5b6103ac60606105f9565b905060006103bc848285016103f0565b60008301525060206103d084828501610326565b60208301525060406103e484828501610326565b60408301525092915050565b60006103fc82356106bf565b905092915050565b600080600060a0848603121561041957600080fd5b600061042786828701610312565b935050602084013567ffffffffffffffff81111561044457600080fd5b6104508682870161033a565b925050604061046186828701610390565b9150509250925092565b60006020828403121561047d57600080fd5b600082013567ffffffffffffffff81111561049757600080fd5b6104a38482850161033a565b91505092915050565b600080600080608085870312156104c257600080fd5b600085013567ffffffffffffffff8111156104dc57600080fd5b6104e88782880161033a565b94505060206104f9878288016103f0565b935050604061050a87828801610326565b925050606061051b87828801610326565b91505092959194509250565b61053081610652565b82525050565b61053f81610672565b82525050565b61054e8161067e565b82525050565b61055d81610688565b82525050565b60006020820190506105786000830184610527565b92915050565b60006020820190506105936000830184610536565b92915050565b60006020820190506105ae6000830184610545565b92915050565b60006080820190506105c96000830187610545565b6105d66020830186610554565b6105e36040830185610545565b6105f06060830184610545565b95945050505050565b6000604051905081810181811067ffffffffffffffff8211171561061c57600080fd5b8060405250919050565b600067ffffffffffffffff82111561063d57600080fd5b601f19601f8301169050602081019050919050565b600073ffffffffffffffffffffffffffffffffffffffff82169050919050565b60008115159050919050565b6000819050919050565b600060ff82169050919050565b600073ffffffffffffffffffffffffffffffffffffffff82169050919050565b6000819050919050565b600060ff82169050919050565b828183376000838301525050505600a265627a7a72305820ad50ffa7110dc8ce4f2621ee8b43e11151efcff609f60742a3904f20e119f0d16c6578706572696d656e74616cf50037",
  "source": "pragma solidity ^0.4.23;\npragma experimental ABIEncoderV2;\n\ncontract ECDSA {\n  struct Signature {\n    uint8 v;\n    bytes32 r;\n    bytes32 s;\n  }\n\n  function verifySignature(address _address, bytes _bytes, Signature signature) pure returns(bool){\n    return ecrecover(\n      signatureHash(_bytes),\n      signature.v,\n      signature.r,\n      signature.s\n    ) == _address;\n  }\n\n  function signatureHash(bytes _bytes) pure returns (bytes32) {\n    bytes memory prefix = \"\\x19Ethereum Signed Message:\\n65\";\n    return keccak256(prefix, _bytes);\n  }\n\n  function recoverAddress(bytes _bytes, uint8 v, bytes32 r, bytes32 s) pure returns(address) {\n    return ecrecover(\n      signatureHash(_bytes),\n      v,\n      r,\n      s\n    );\n  }\n\n}\n",
  "sourcePath": "/Users/masonf/src/ellipticoin-staking-contract/contracts/utils/ECDSA.sol",
  "compiler": {
    "name": "solc",
    "version": "0.4.23+commit.124ca40d.Emscripten.clang"
  },
  "schemaVersion": "2.0.0",
  "updatedAt": "2018-05-24T19:23:37.113Z"
}