{
  "contractName": "EllipitcoinStakingContract",
  "abi": [
    {
      "constant": true,
      "inputs": [],
      "name": "addressesLength",
      "outputs": [
        {
          "name": "",
          "type": "uint256"
        }
      ],
      "payable": false,
      "stateMutability": "view",
      "type": "function"
    },
    {
      "constant": true,
      "inputs": [
        {
          "name": "_address",
          "type": "address"
        },
        {
          "name": "_bytes",
          "type": "bytes32"
        },
        {
          "components": [
            {
              "name": "v",
              "type": "uint8"
            },
            {
              "name": "r",
              "type": "bytes32"
            },
            {
              "name": "s",
              "type": "bytes32"
            }
          ],
          "name": "signature",
          "type": "tuple"
        }
      ],
      "name": "verify",
      "outputs": [
        {
          "name": "",
          "type": "bool"
        }
      ],
      "payable": false,
      "stateMutability": "pure",
      "type": "function"
    },
    {
      "constant": true,
      "inputs": [
        {
          "name": "",
          "type": "address"
        }
      ],
      "name": "balances",
      "outputs": [
        {
          "name": "",
          "type": "uint256"
        }
      ],
      "payable": false,
      "stateMutability": "view",
      "type": "function"
    },
    {
      "constant": false,
      "inputs": [
        {
          "name": "amount",
          "type": "uint256"
        }
      ],
      "name": "withdraw",
      "outputs": [],
      "payable": false,
      "stateMutability": "nonpayable",
      "type": "function"
    },
    {
      "constant": true,
      "inputs": [
        {
          "name": "_owner",
          "type": "address"
        }
      ],
      "name": "balanceOf",
      "outputs": [
        {
          "name": "",
          "type": "uint256"
        }
      ],
      "payable": false,
      "stateMutability": "view",
      "type": "function"
    },
    {
      "constant": true,
      "inputs": [],
      "name": "totalStake",
      "outputs": [
        {
          "name": "_totalStake",
          "type": "uint256"
        }
      ],
      "payable": false,
      "stateMutability": "view",
      "type": "function"
    },
    {
      "constant": true,
      "inputs": [
        {
          "components": [
            {
              "name": "v",
              "type": "uint8"
            },
            {
              "name": "r",
              "type": "bytes32"
            },
            {
              "name": "s",
              "type": "bytes32"
            }
          ],
          "name": "signature",
          "type": "tuple"
        }
      ],
      "name": "signatureToBytes",
      "outputs": [
        {
          "name": "",
          "type": "bytes"
        }
      ],
      "payable": false,
      "stateMutability": "pure",
      "type": "function"
    },
    {
      "constant": false,
      "inputs": [
        {
          "name": "amount",
          "type": "uint256"
        }
      ],
      "name": "deposit",
      "outputs": [],
      "payable": false,
      "stateMutability": "nonpayable",
      "type": "function"
    },
    {
      "constant": true,
      "inputs": [],
      "name": "lastSignature",
      "outputs": [
        {
          "name": "v",
          "type": "uint8"
        },
        {
          "name": "r",
          "type": "bytes32"
        },
        {
          "name": "s",
          "type": "bytes32"
        }
      ],
      "payable": false,
      "stateMutability": "view",
      "type": "function"
    },
    {
      "constant": true,
      "inputs": [
        {
          "name": "",
          "type": "uint256"
        }
      ],
      "name": "addresses",
      "outputs": [
        {
          "name": "",
          "type": "address"
        }
      ],
      "payable": false,
      "stateMutability": "view",
      "type": "function"
    },
    {
      "constant": true,
      "inputs": [],
      "name": "blockHash",
      "outputs": [
        {
          "name": "",
          "type": "bytes32"
        }
      ],
      "payable": false,
      "stateMutability": "view",
      "type": "function"
    },
    {
      "constant": true,
      "inputs": [],
      "name": "token",
      "outputs": [
        {
          "name": "",
          "type": "address"
        }
      ],
      "payable": false,
      "stateMutability": "view",
      "type": "function"
    },
    {
      "inputs": [
        {
          "name": "_token",
          "type": "address"
        },
        {
          "name": "randomSeed",
          "type": "bytes32"
        }
      ],
      "payable": false,
      "stateMutability": "nonpayable",
      "type": "constructor"
    },
    {
      "constant": false,
      "inputs": [
        {
          "name": "v",
          "type": "uint8"
        },
        {
          "name": "r",
          "type": "bytes32"
        },
        {
          "name": "s",
          "type": "bytes32"
        }
      ],
      "name": "echoSignature",
      "outputs": [
        {
          "name": "",
          "type": "bytes"
        }
      ],
      "payable": false,
      "stateMutability": "nonpayable",
      "type": "function"
    },
    {
      "constant": false,
      "inputs": [
        {
          "name": "_blockHash",
          "type": "bytes32"
        },
        {
          "name": "v",
          "type": "uint8"
        },
        {
          "name": "r",
          "type": "bytes32"
        },
        {
          "name": "s",
          "type": "bytes32"
        }
      ],
      "name": "submitBlock",
      "outputs": [],
      "payable": false,
      "stateMutability": "nonpayable",
      "type": "function"
    },
    {
      "constant": true,
      "inputs": [],
      "name": "winner",
      "outputs": [
        {
          "name": "",
          "type": "address"
        }
      ],
      "payable": false,
      "stateMutability": "view",
      "type": "function"
    },
    {
      "constant": true,
      "inputs": [],
      "name": "lastSignatureHash",
      "outputs": [
        {
          "name": "",
          "type": "bytes32"
        }
      ],
      "payable": false,
      "stateMutability": "view",
      "type": "function"
    }
  ],
  "bytecode": "0x60806040523480156200001157600080fd5b5060405160408062001c1e833981018060405262000033919081019062000117565b81806000806101000a81548173ffffffffffffffffffffffffffffffffffffffff021916908373ffffffffffffffffffffffffffffffffffffffff16021790555050606060405190810160405280600060ff168152602001826000191681526020018260001916815250600460008201518160000160006101000a81548160ff021916908360ff1602179055506020820151816001019060001916905560408201518160020190600019169055905050505062000196565b6000620000f9825162000178565b905092915050565b60006200010f825162000182565b905092915050565b600080604083850312156200012b57600080fd5b60006200013b8582860162000101565b92505060206200014e85828601620000eb565b9150509250929050565b600073ffffffffffffffffffffffffffffffffffffffff82169050919050565b6000819050919050565b60006200018f8262000158565b9050919050565b611a7880620001a66000396000f3006080604052600436106100e6576000357c0100000000000000000000000000000000000000000000000000000000900463ffffffff1680630150b530146100eb5780630db73bfe1461011657806327e235e3146101535780632e1a7d4d1461019057806367293666146101b957806370a08231146101e4578063891ac334146102215780638b0e9f3f1461024a5780639e94e62014610275578063b6b55f25146102b2578063c6678826146102db578063dfbf53ae14610308578063edf26d9b14610333578063ef59486f14610370578063f22a195e146103ad578063fc0c546a146103d8575b600080fd5b3480156100f757600080fd5b50610100610403565b60405161010d91906118b2565b60405180910390f35b34801561012257600080fd5b5061013d60048036036101389190810190611504565b610410565b60405161014a919061179a565b60405180910390f35b34801561015f57600080fd5b5061017a600480360361017591908101906114db565b6104a6565b60405161018791906118b2565b60405180910390f35b34801561019c57600080fd5b506101b760048036036101b29190810190611608565b6104be565b005b3480156101c557600080fd5b506101ce6107e3565b6040516101db91906117b5565b60405180910390f35b3480156101f057600080fd5b5061020b600480360361020691908101906114db565b6108f4565b60405161021891906118b2565b60405180910390f35b34801561022d57600080fd5b506102486004803603610243919081019061157c565b61093d565b005b34801561025657600080fd5b5061025f610a25565b60405161026c91906118b2565b60405180910390f35b34801561028157600080fd5b5061029c600480360361029791908101906115df565b610ac8565b6040516102a99190611815565b60405180910390f35b3480156102be57600080fd5b506102d960048036036102d49190810190611608565b610c78565b005b3480156102e757600080fd5b506102f0610ed1565b6040516102ff939291906118cd565b60405180910390f35b34801561031457600080fd5b5061031d610ef6565b60405161032a9190611748565b60405180910390f35b34801561033f57600080fd5b5061035a60048036036103559190810190611608565b610fe8565b6040516103679190611748565b60405180910390f35b34801561037c57600080fd5b506103976004803603610392919081019061165a565b611026565b6040516103a49190611815565b60405180910390f35b3480156103b957600080fd5b506103c26110f4565b6040516103cf91906117b5565b60405180910390f35b3480156103e457600080fd5b506103ed6110fa565b6040516103fa9190611897565b60405180910390f35b6000600180549050905090565b60008373ffffffffffffffffffffffffffffffffffffffff166001848460000151856020015186604001516040516000815260200160405260405161045894939291906117d0565b60206040516020810390808403906000865af115801561047c573d6000803e3d6000fd5b5050506020604051035173ffffffffffffffffffffffffffffffffffffffff161490509392505050565b60026020528060005260406000206000915090505481565b80600260003373ffffffffffffffffffffffffffffffffffffffff1673ffffffffffffffffffffffffffffffffffffffff168152602001908152602001600020541015151561050c57600080fd5b80600260003373ffffffffffffffffffffffffffffffffffffffff1673ffffffffffffffffffffffffffffffffffffffff168152602001908152602001600020600082825403925050819055506000809054906101000a900473ffffffffffffffffffffffffffffffffffffffff1673ffffffffffffffffffffffffffffffffffffffff1663095ea7b330836040518363ffffffff167c01000000000000000000000000000000000000000000000000000000000281526004016105d192919061186e565b602060405180830381600087803b1580156105eb57600080fd5b505af11580156105ff573d6000803e3d6000fd5b505050506040513d601f19601f820116820180604052506106239190810190611553565b506000809054906101000a900473ffffffffffffffffffffffffffffffffffffffff1673ffffffffffffffffffffffffffffffffffffffff166323b872dd3033846040518463ffffffff167c010000000000000000000000000000000000000000000000000000000002815260040161069e93929190611837565b602060405180830381600087803b1580156106b857600080fd5b505af11580156106cc573d6000803e3d6000fd5b505050506040513d601f19601f820116820180604052506106f09190810190611553565b506000600260003373ffffffffffffffffffffffffffffffffffffffff1673ffffffffffffffffffffffffffffffffffffffff1681526020019081526020016000205414156107e0576107c960018054806020026020016040519081016040528092919081815260200182805480156107be57602002820191906000526020600020905b8160009054906101000a900473ffffffffffffffffffffffffffffffffffffffff1673ffffffffffffffffffffffffffffffffffffffff1681526020019060010190808311610774575b50505050503361111f565b600190805190602001906107de92919061130b565b505b50565b600060606040805190810160405280601c81526020017f19457468657265756d205369676e6564204d6573736167653a0a363500000000815250905080600460010154600460020154600460000160009054906101000a900460ff166040518085805190602001908083835b602083101515610874578051825260208201915060208101905060208303925061084f565b6001836020036101000a038019825116818451168082178552505050505050905001846000191660001916815260200183600019166000191681526020018260ff1660ff167f0100000000000000000000000000000000000000000000000000000000000000028152600101945050505050604051809103902091505090565b6000600260008373ffffffffffffffffffffffffffffffffffffffff1673ffffffffffffffffffffffffffffffffffffffff168152602001908152602001600020549050919050565b610945611395565b6060604051908101604052808560ff1681526020018460001916815260200183600019168152509050610976610ef6565b73ffffffffffffffffffffffffffffffffffffffff163373ffffffffffffffffffffffffffffffffffffffff161415156109af57600080fd5b6109c1336109bb6107e3565b83610410565b15156109cc57600080fd5b846003816000191690555080600460008201518160000160006101000a81548160ff021916908360ff16021790555060208201518160010190600019169055604082015181600201906000191690559050505050505050565b600080600090505b600180549050811015610ac45760026000600183815481101515610a4d57fe5b9060005260206000200160009054906101000a900473ffffffffffffffffffffffffffffffffffffffff1673ffffffffffffffffffffffffffffffffffffffff1673ffffffffffffffffffffffffffffffffffffffff16815260200190815260200160002054820191508080600101915050610a2d565b5090565b606080600060416040519080825280601f01601f191660200182016040528015610b015781602001602082028038833980820191505090505b509150600090505b6020811015610c0857836020015181602081101515610b2457fe5b1a7f0100000000000000000000000000000000000000000000000000000000000000028282815181101515610b5557fe5b9060200101907effffffffffffffffffffffffffffffffffffffffffffffffffffffffffffff1916908160001a905350836040015181602081101515610b9757fe5b1a7f0100000000000000000000000000000000000000000000000000000000000000028260208301815181101515610bcb57fe5b9060200101907effffffffffffffffffffffffffffffffffffffffffffffffffffffffffffff1916908160001a9053508080600101915050610b09565b83600001517f010000000000000000000000000000000000000000000000000000000000000002826040815181101515610c3e57fe5b9060200101907effffffffffffffffffffffffffffffffffffffffffffffffffffffffffffff1916908160001a9053508192505050919050565b806000809054906101000a900473ffffffffffffffffffffffffffffffffffffffff1673ffffffffffffffffffffffffffffffffffffffff166370a08231336040518263ffffffff167c0100000000000000000000000000000000000000000000000000000000028152600401610cef9190611748565b602060405180830381600087803b158015610d0957600080fd5b505af1158015610d1d573d6000803e3d6000fd5b505050506040513d601f19601f82011682018060405250610d419190810190611631565b10151515610d4e57600080fd5b80600260003373ffffffffffffffffffffffffffffffffffffffff1673ffffffffffffffffffffffffffffffffffffffff1681526020019081526020016000206000828254019250508190555060013390806001815401808255809150509060018203906000526020600020016000909192909190916101000a81548173ffffffffffffffffffffffffffffffffffffffff021916908373ffffffffffffffffffffffffffffffffffffffff160217905550506000809054906101000a900473ffffffffffffffffffffffffffffffffffffffff1673ffffffffffffffffffffffffffffffffffffffff166323b872dd3330846040518463ffffffff167c0100000000000000000000000000000000000000000000000000000000028152600401610e7b93929190611763565b602060405180830381600087803b158015610e9557600080fd5b505af1158015610ea9573d6000803e3d6000fd5b505050506040513d601f19601f82011682018060405250610ecd9190810190611553565b5050565b60048060000160009054906101000a900460ff16908060010154908060020154905083565b6000806000806000600460020154600190046004600101546001900401600460000160009054906101000a900460ff1660ff16019350610f34610a25565b84811515610f3e57fe5b06925060009150600090505b610f8c600182815481101515610f5c57fe5b9060005260206000200160009054906101000a900473ffffffffffffffffffffffffffffffffffffffff166108f4565b8201915060018101905082821015610fa357610f4a565b6001808203815481101515610fb457fe5b9060005260206000200160009054906101000a900473ffffffffffffffffffffffffffffffffffffffff1694505050505090565b600181815481101515610ff757fe5b906000526020600020016000915054906101000a900473ffffffffffffffffffffffffffffffffffffffff1681565b606080604051908101604052808560ff168152602001846000191681526020018360001916815250600460008201518160000160006101000a81548160ff021916908360ff16021790555060208201518160010190600019169055604082015181600201906000191690559050506110eb6004606060405190810160405290816000820160009054906101000a900460ff1660ff1660ff1681526020016001820154600019166000191681526020016002820154600019166000191681525050610ac8565b90509392505050565b60035481565b6000809054906101000a900473ffffffffffffffffffffffffffffffffffffffff1681565b60606111348361112f858561113c565b6111b5565b905092915050565b600080600090505b83518110156111ad57838181518110151561115b57fe5b9060200190602002015173ffffffffffffffffffffffffffffffffffffffff168373ffffffffffffffffffffffffffffffffffffffff1614156111a0578091506111ae565b8080600101915050611144565b5b5092915050565b60608060008451841015156111c957611303565b60018551036040519080825280602002602001820160405280156111fc5781602001602082028038833980820191505090505b509150600090505b81518110156112fb5783811415801561121c57508381105b1561128857848181518110151561122f57fe5b90602001906020020151828281518110151561124757fe5b9060200190602002019073ffffffffffffffffffffffffffffffffffffffff16908173ffffffffffffffffffffffffffffffffffffffff16815250506112ee565b846001820181518110151561129957fe5b9060200190602002015182828151811015156112b157fe5b9060200190602002019073ffffffffffffffffffffffffffffffffffffffff16908173ffffffffffffffffffffffffffffffffffffffff16815250505b8080600101915050611204565b606094508192505b505092915050565b828054828255906000526020600020908101928215611384579160200282015b828111156113835782518260006101000a81548173ffffffffffffffffffffffffffffffffffffffff021916908373ffffffffffffffffffffffffffffffffffffffff1602179055509160200191906001019061132b565b5b50905061139191906113c0565b5090565b606060405190810160405280600060ff16815260200160008019168152602001600080191681525090565b61140091905b808211156113fc57600081816101000a81549073ffffffffffffffffffffffffffffffffffffffff0219169055506001016113c6565b5090565b90565b600061140f8235611989565b905092915050565b600061142382516119a9565b905092915050565b600061143782356119b5565b905092915050565b60006060828403121561145157600080fd5b61145b6060611904565b9050600061146b848285016114c7565b600083015250602061147f8482850161142b565b60208301525060406114938482850161142b565b60408301525092915050565b60006114ab82356119bf565b905092915050565b60006114bf82516119bf565b905092915050565b60006114d382356119c9565b905092915050565b6000602082840312156114ed57600080fd5b60006114fb84828501611403565b91505092915050565b600080600060a0848603121561151957600080fd5b600061152786828701611403565b93505060206115388682870161142b565b92505060406115498682870161143f565b9150509250925092565b60006020828403121561156557600080fd5b600061157384828501611417565b91505092915050565b6000806000806080858703121561159257600080fd5b60006115a08782880161142b565b94505060206115b1878288016114c7565b93505060406115c28782880161142b565b92505060606115d38782880161142b565b91505092959194509250565b6000606082840312156115f157600080fd5b60006115ff8482850161143f565b91505092915050565b60006020828403121561161a57600080fd5b60006116288482850161149f565b91505092915050565b60006020828403121561164357600080fd5b6000611651848285016114b3565b91505092915050565b60008060006060848603121561166f57600080fd5b600061167d868287016114c7565b935050602061168e8682870161142b565b925050604061169f8682870161142b565b9150509250925092565b6116b28161193c565b82525050565b6116c18161195c565b82525050565b6116d081611968565b82525050565b60006116e182611931565b8084526116f58160208601602086016119fa565b6116fe81611a2d565b602085010191505092915050565b611715816119d6565b82525050565b611724816119e8565b82525050565b61173381611972565b82525050565b6117428161197c565b82525050565b600060208201905061175d60008301846116a9565b92915050565b600060608201905061177860008301866116a9565b611785602083018561170c565b611792604083018461172a565b949350505050565b60006020820190506117af60008301846116b8565b92915050565b60006020820190506117ca60008301846116c7565b92915050565b60006080820190506117e560008301876116c7565b6117f26020830186611739565b6117ff60408301856116c7565b61180c60608301846116c7565b95945050505050565b6000602082019050818103600083015261182f81846116d6565b905092915050565b600060608201905061184c600083018661170c565b61185960208301856116a9565b611866604083018461172a565b949350505050565b6000604082019050611883600083018561170c565b611890602083018461172a565b9392505050565b60006020820190506118ac600083018461171b565b92915050565b60006020820190506118c7600083018461172a565b92915050565b60006060820190506118e26000830186611739565b6118ef60208301856116c7565b6118fc60408301846116c7565b949350505050565b6000604051905081810181811067ffffffffffffffff8211171561192757600080fd5b8060405250919050565b600081519050919050565b600073ffffffffffffffffffffffffffffffffffffffff82169050919050565b60008115159050919050565b6000819050919050565b6000819050919050565b600060ff82169050919050565b600073ffffffffffffffffffffffffffffffffffffffff82169050919050565b60008115159050919050565b6000819050919050565b6000819050919050565b600060ff82169050919050565b60006119e18261193c565b9050919050565b60006119f38261193c565b9050919050565b60005b83811015611a185780820151818401526020810190506119fd565b83811115611a27576000848401525b50505050565b6000601f19601f83011690509190505600a265627a7a72305820adac486c92dfb2f288e0442202d7b1937f46d03c4e0e24360809dfe55326ff826c6578706572696d656e74616cf50037",
  "source": "pragma solidity ^0.4.23;\npragma experimental ABIEncoderV2;\nimport \"openzeppelin-solidity/contracts/token/ERC20/ERC20.sol\";\nimport \"./Depositable.sol\";\nimport \"./utils/ECDSA.sol\";\n\ncontract EllipitcoinStakingContract is Depositable, ECDSA {\n  bytes32 public blockHash;\n  Signature public lastSignature;\n\n  constructor(ERC20 _token, bytes32 randomSeed) Depositable(_token) public {\n    lastSignature = Signature(0, randomSeed, randomSeed);\n  }\n\n  function echoSignature(uint8 v, bytes32 r, bytes32 s) public returns (bytes){\n    lastSignature = Signature(v,r,s);\n    return signatureToBytes(lastSignature);\n  }\n\n  function submitBlock(bytes32 _blockHash, uint8 v, bytes32 r, bytes32 s) public {\n    Signature memory signature = Signature(v,r,s); \n    require(msg.sender == winner());\n    require(verify(msg.sender, lastSignatureHash(), signature));\n    blockHash = _blockHash;\n    lastSignature = signature;\n  }\n\n  function winner() public view returns (address) {\n    uint randomUint = lastSignature.v + (uint(lastSignature.r) + uint(lastSignature.s));\n    uint winningValue = randomUint % totalStake();\n    uint value = 0;\n    uint i = 0;\n    do {\n      value += balanceOf(addresses[i]);\n      i += 1;\n    } while (value < winningValue);\n\n    return addresses[i - 1];\n  }\n\n  function lastSignatureHash() public view returns (bytes32) {\n    bytes memory prefix = \"\\x19Ethereum Signed Message:\\n65\";\n    return keccak256(prefix, lastSignature.r, lastSignature.s, lastSignature.v);\n  }\n\n}\n",
  "sourcePath": "/Users/masonf/src/ellipticoin-staking-contract/contracts/EllipitcoinStakingContract.sol",
  "compiler": {
    "name": "solc",
    "version": "0.4.23+commit.124ca40d.Emscripten.clang"
  },
  "schemaVersion": "2.0.0",
  "updatedAt": "2018-05-17T21:52:20.151Z"
}