{
  "contractName": "EllipitcoinStakingContract",
  "abi": [
    {
      "constant": true,
      "inputs": [],
      "name": "addressesLength",
      "outputs": [
        {
          "name": "",
          "type": "uint256"
        }
      ],
      "payable": false,
      "stateMutability": "view",
      "type": "function"
    },
    {
      "constant": true,
      "inputs": [
        {
          "name": "",
          "type": "address"
        }
      ],
      "name": "balances",
      "outputs": [
        {
          "name": "",
          "type": "uint256"
        }
      ],
      "payable": false,
      "stateMutability": "view",
      "type": "function"
    },
    {
      "constant": false,
      "inputs": [
        {
          "name": "amount",
          "type": "uint256"
        }
      ],
      "name": "withdraw",
      "outputs": [],
      "payable": false,
      "stateMutability": "nonpayable",
      "type": "function"
    },
    {
      "constant": true,
      "inputs": [
        {
          "name": "_owner",
          "type": "address"
        }
      ],
      "name": "balanceOf",
      "outputs": [
        {
          "name": "",
          "type": "uint256"
        }
      ],
      "payable": false,
      "stateMutability": "view",
      "type": "function"
    },
    {
      "constant": true,
      "inputs": [],
      "name": "totalStake",
      "outputs": [
        {
          "name": "_totalStake",
          "type": "uint256"
        }
      ],
      "payable": false,
      "stateMutability": "view",
      "type": "function"
    },
    {
      "constant": true,
      "inputs": [
        {
          "components": [
            {
              "name": "v",
              "type": "uint8"
            },
            {
              "name": "r",
              "type": "bytes32"
            },
            {
              "name": "s",
              "type": "bytes32"
            }
          ],
          "name": "signature",
          "type": "tuple"
        }
      ],
      "name": "signatureToBytes",
      "outputs": [
        {
          "name": "",
          "type": "bytes"
        }
      ],
      "payable": false,
      "stateMutability": "pure",
      "type": "function"
    },
    {
      "constant": false,
      "inputs": [
        {
          "name": "amount",
          "type": "uint256"
        }
      ],
      "name": "deposit",
      "outputs": [],
      "payable": false,
      "stateMutability": "nonpayable",
      "type": "function"
    },
    {
      "constant": true,
      "inputs": [
        {
          "name": "_bytes",
          "type": "bytes"
        },
        {
          "name": "v",
          "type": "uint8"
        },
        {
          "name": "r",
          "type": "bytes32"
        },
        {
          "name": "s",
          "type": "bytes32"
        }
      ],
      "name": "recoverAddress",
      "outputs": [
        {
          "name": "",
          "type": "address"
        }
      ],
      "payable": false,
      "stateMutability": "pure",
      "type": "function"
    },
    {
      "constant": true,
      "inputs": [
        {
          "name": "_address",
          "type": "address"
        },
        {
          "name": "_bytes",
          "type": "bytes"
        },
        {
          "components": [
            {
              "name": "v",
              "type": "uint8"
            },
            {
              "name": "r",
              "type": "bytes32"
            },
            {
              "name": "s",
              "type": "bytes32"
            }
          ],
          "name": "signature",
          "type": "tuple"
        }
      ],
      "name": "verifySignature",
      "outputs": [
        {
          "name": "",
          "type": "bool"
        }
      ],
      "payable": false,
      "stateMutability": "pure",
      "type": "function"
    },
    {
      "constant": true,
      "inputs": [],
      "name": "lastSignature",
      "outputs": [
        {
          "name": "v",
          "type": "uint8"
        },
        {
          "name": "r",
          "type": "bytes32"
        },
        {
          "name": "s",
          "type": "bytes32"
        }
      ],
      "payable": false,
      "stateMutability": "view",
      "type": "function"
    },
    {
      "constant": true,
      "inputs": [
        {
          "name": "_bytes",
          "type": "bytes"
        }
      ],
      "name": "signatureHash",
      "outputs": [
        {
          "name": "",
          "type": "bytes32"
        }
      ],
      "payable": false,
      "stateMutability": "pure",
      "type": "function"
    },
    {
      "constant": true,
      "inputs": [
        {
          "name": "",
          "type": "uint256"
        }
      ],
      "name": "addresses",
      "outputs": [
        {
          "name": "",
          "type": "address"
        }
      ],
      "payable": false,
      "stateMutability": "view",
      "type": "function"
    },
    {
      "constant": true,
      "inputs": [],
      "name": "blockHash",
      "outputs": [
        {
          "name": "",
          "type": "bytes32"
        }
      ],
      "payable": false,
      "stateMutability": "view",
      "type": "function"
    },
    {
      "constant": true,
      "inputs": [
        {
          "name": "_address",
          "type": "address"
        },
        {
          "name": "_bytes",
          "type": "bytes"
        },
        {
          "name": "v",
          "type": "uint8"
        },
        {
          "name": "r",
          "type": "bytes32"
        },
        {
          "name": "s",
          "type": "bytes32"
        }
      ],
      "name": "verifyVRS",
      "outputs": [
        {
          "name": "",
          "type": "bool"
        }
      ],
      "payable": false,
      "stateMutability": "pure",
      "type": "function"
    },
    {
      "constant": true,
      "inputs": [],
      "name": "token",
      "outputs": [
        {
          "name": "",
          "type": "address"
        }
      ],
      "payable": false,
      "stateMutability": "view",
      "type": "function"
    },
    {
      "inputs": [
        {
          "name": "_token",
          "type": "address"
        },
        {
          "name": "randomSeed",
          "type": "bytes32"
        }
      ],
      "payable": false,
      "stateMutability": "nonpayable",
      "type": "constructor"
    },
    {
      "constant": false,
      "inputs": [
        {
          "name": "v",
          "type": "uint8"
        },
        {
          "name": "r",
          "type": "bytes32"
        },
        {
          "name": "s",
          "type": "bytes32"
        }
      ],
      "name": "echoSignature",
      "outputs": [
        {
          "name": "",
          "type": "bytes"
        }
      ],
      "payable": false,
      "stateMutability": "nonpayable",
      "type": "function"
    },
    {
      "constant": false,
      "inputs": [
        {
          "name": "_blockHash",
          "type": "bytes32"
        },
        {
          "name": "v",
          "type": "uint8"
        },
        {
          "name": "r",
          "type": "bytes32"
        },
        {
          "name": "s",
          "type": "bytes32"
        }
      ],
      "name": "submitBlock",
      "outputs": [],
      "payable": false,
      "stateMutability": "nonpayable",
      "type": "function"
    },
    {
      "constant": true,
      "inputs": [],
      "name": "winner",
      "outputs": [
        {
          "name": "",
          "type": "address"
        }
      ],
      "payable": false,
      "stateMutability": "view",
      "type": "function"
    },
    {
      "constant": true,
      "inputs": [],
      "name": "lastSignatureBytes",
      "outputs": [
        {
          "name": "",
          "type": "bytes"
        }
      ],
      "payable": false,
      "stateMutability": "view",
      "type": "function"
    }
  ],
  "bytecode": "0x60806040523480156200001157600080fd5b5060405160408062001fea833981018060405262000033919081019062000117565b81806000806101000a81548173ffffffffffffffffffffffffffffffffffffffff021916908373ffffffffffffffffffffffffffffffffffffffff16021790555050606060405190810160405280600060ff168152602001826000191681526020018260001916815250600460008201518160000160006101000a81548160ff021916908360ff1602179055506020820151816001019060001916905560408201518160020190600019169055905050505062000196565b6000620000f9825162000178565b905092915050565b60006200010f825162000182565b905092915050565b600080604083850312156200012b57600080fd5b60006200013b8582860162000101565b92505060206200014e85828601620000eb565b9150509250929050565b600073ffffffffffffffffffffffffffffffffffffffff82169050919050565b6000819050919050565b60006200018f8262000158565b9050919050565b611e4480620001a66000396000f300608060405260043610610107576000357c0100000000000000000000000000000000000000000000000000000000900463ffffffff1680630150b5301461010c57806327e235e3146101375780632e1a7d4d146101745780634785e94f1461019d57806370a08231146101c8578063891ac334146102055780638b0e9f3f1461022e5780639e94e62014610259578063b6b55f2514610296578063bc92eba2146102bf578063bfd2f11b146102fc578063c667882614610339578063d5e5868714610366578063dfbf53ae146103a3578063edf26d9b146103ce578063ef59486f1461040b578063f22a195e14610448578063f48fcc3c14610473578063fc0c546a146104b0575b600080fd5b34801561011857600080fd5b506101216104db565b60405161012e9190611c43565b60405180910390f35b34801561014357600080fd5b5061015e60048036036101599190810190611709565b6104e8565b60405161016b9190611c43565b60405180910390f35b34801561018057600080fd5b5061019b60048036036101969190810190611999565b610500565b005b3480156101a957600080fd5b506101b2610825565b6040516101bf9190611ba6565b60405180910390f35b3480156101d457600080fd5b506101ef60048036036101ea9190810190611709565b610883565b6040516101fc9190611c43565b60405180910390f35b34801561021157600080fd5b5061022c60048036036102279190810190611851565b6108cc565b005b34801561023a57600080fd5b506102436109b4565b6040516102509190611c43565b60405180910390f35b34801561026557600080fd5b50610280600480360361027b9190810190611970565b610a57565b60405161028d9190611ba6565b60405180910390f35b3480156102a257600080fd5b506102bd60048036036102b89190810190611999565b610c07565b005b3480156102cb57600080fd5b506102e660048036036102e191908101906118f5565b610e60565b6040516102f39190611ad9565b60405180910390f35b34801561030857600080fd5b50610323600480360361031e9190810190611732565b610ec5565b6040516103309190611b2b565b60405180910390f35b34801561034557600080fd5b5061034e610f63565b60405161035d93929190611c5e565b60405180910390f35b34801561037257600080fd5b5061038d600480360361038891908101906118b4565b610f88565b60405161039a9190611b46565b60405180910390f35b3480156103af57600080fd5b506103b8611084565b6040516103c59190611ad9565b60405180910390f35b3480156103da57600080fd5b506103f560048036036103f09190810190611999565b611176565b6040516104029190611ad9565b60405180910390f35b34801561041757600080fd5b50610432600480360361042d91908101906119eb565b6111b4565b60405161043f9190611ba6565b60405180910390f35b34801561045457600080fd5b5061045d611282565b60405161046a9190611b46565b60405180910390f35b34801561047f57600080fd5b5061049a60048036036104959190810190611799565b611288565b6040516104a79190611b2b565b60405180910390f35b3480156104bc57600080fd5b506104c56112d2565b6040516104d29190611c28565b60405180910390f35b6000600180549050905090565b60026020528060005260406000206000915090505481565b80600260003373ffffffffffffffffffffffffffffffffffffffff1673ffffffffffffffffffffffffffffffffffffffff168152602001908152602001600020541015151561054e57600080fd5b80600260003373ffffffffffffffffffffffffffffffffffffffff1673ffffffffffffffffffffffffffffffffffffffff168152602001908152602001600020600082825403925050819055506000809054906101000a900473ffffffffffffffffffffffffffffffffffffffff1673ffffffffffffffffffffffffffffffffffffffff1663095ea7b330836040518363ffffffff167c0100000000000000000000000000000000000000000000000000000000028152600401610613929190611bff565b602060405180830381600087803b15801561062d57600080fd5b505af1158015610641573d6000803e3d6000fd5b505050506040513d601f19601f820116820180604052506106659190810190611828565b506000809054906101000a900473ffffffffffffffffffffffffffffffffffffffff1673ffffffffffffffffffffffffffffffffffffffff166323b872dd3033846040518463ffffffff167c01000000000000000000000000000000000000000000000000000000000281526004016106e093929190611bc8565b602060405180830381600087803b1580156106fa57600080fd5b505af115801561070e573d6000803e3d6000fd5b505050506040513d601f19601f820116820180604052506107329190810190611828565b506000600260003373ffffffffffffffffffffffffffffffffffffffff1673ffffffffffffffffffffffffffffffffffffffff1681526020019081526020016000205414156108225761080b600180548060200260200160405190810160405280929190818152602001828054801561080057602002820191906000526020600020905b8160009054906101000a900473ffffffffffffffffffffffffffffffffffffffff1673ffffffffffffffffffffffffffffffffffffffff16815260200190600101908083116107b6575b5050505050336112f7565b600190805190602001906108209291906114e3565b505b50565b606061087e6004606060405190810160405290816000820160009054906101000a900460ff1660ff1660ff1681526020016001820154600019166000191681526020016002820154600019166000191681525050610a57565b905090565b6000600260008373ffffffffffffffffffffffffffffffffffffffff1673ffffffffffffffffffffffffffffffffffffffff168152602001908152602001600020549050919050565b6108d461156d565b6060604051908101604052808560ff1681526020018460001916815260200183600019168152509050610905611084565b73ffffffffffffffffffffffffffffffffffffffff163373ffffffffffffffffffffffffffffffffffffffff1614151561093e57600080fd5b6109503361094a610825565b83610ec5565b151561095b57600080fd5b846003816000191690555080600460008201518160000160006101000a81548160ff021916908360ff16021790555060208201518160010190600019169055604082015181600201906000191690559050505050505050565b600080600090505b600180549050811015610a5357600260006001838154811015156109dc57fe5b9060005260206000200160009054906101000a900473ffffffffffffffffffffffffffffffffffffffff1673ffffffffffffffffffffffffffffffffffffffff1673ffffffffffffffffffffffffffffffffffffffff168152602001908152602001600020548201915080806001019150506109bc565b5090565b606080600060416040519080825280601f01601f191660200182016040528015610a905781602001602082028038833980820191505090505b509150600090505b6020811015610b9757836020015181602081101515610ab357fe5b1a7f0100000000000000000000000000000000000000000000000000000000000000028282815181101515610ae457fe5b9060200101907effffffffffffffffffffffffffffffffffffffffffffffffffffffffffffff1916908160001a905350836040015181602081101515610b2657fe5b1a7f0100000000000000000000000000000000000000000000000000000000000000028260208301815181101515610b5a57fe5b9060200101907effffffffffffffffffffffffffffffffffffffffffffffffffffffffffffff1916908160001a9053508080600101915050610a98565b83600001517f010000000000000000000000000000000000000000000000000000000000000002826040815181101515610bcd57fe5b9060200101907effffffffffffffffffffffffffffffffffffffffffffffffffffffffffffff1916908160001a9053508192505050919050565b806000809054906101000a900473ffffffffffffffffffffffffffffffffffffffff1673ffffffffffffffffffffffffffffffffffffffff166370a08231336040518263ffffffff167c0100000000000000000000000000000000000000000000000000000000028152600401610c7e9190611ad9565b602060405180830381600087803b158015610c9857600080fd5b505af1158015610cac573d6000803e3d6000fd5b505050506040513d601f19601f82011682018060405250610cd091908101906119c2565b10151515610cdd57600080fd5b80600260003373ffffffffffffffffffffffffffffffffffffffff1673ffffffffffffffffffffffffffffffffffffffff1681526020019081526020016000206000828254019250508190555060013390806001815401808255809150509060018203906000526020600020016000909192909190916101000a81548173ffffffffffffffffffffffffffffffffffffffff021916908373ffffffffffffffffffffffffffffffffffffffff160217905550506000809054906101000a900473ffffffffffffffffffffffffffffffffffffffff1673ffffffffffffffffffffffffffffffffffffffff166323b872dd3330846040518463ffffffff167c0100000000000000000000000000000000000000000000000000000000028152600401610e0a93929190611af4565b602060405180830381600087803b158015610e2457600080fd5b505af1158015610e38573d6000803e3d6000fd5b505050506040513d601f19601f82011682018060405250610e5c9190810190611828565b5050565b60006001610e6d86610f88565b85858560405160008152602001604052604051610e8d9493929190611b61565b60206040516020810390808403906000865af1158015610eb1573d6000803e3d6000fd5b505050602060405103519050949350505050565b60008373ffffffffffffffffffffffffffffffffffffffff166001610ee985610f88565b84600001518560200151866040015160405160008152602001604052604051610f159493929190611b61565b60206040516020810390808403906000865af1158015610f39573d6000803e3d6000fd5b5050506020604051035173ffffffffffffffffffffffffffffffffffffffff161490509392505050565b60048060000160009054906101000a900460ff16908060010154908060020154905083565b600060606040805190810160405280601c81526020017f19457468657265756d205369676e6564204d6573736167653a0a363500000000815250905080836040518083805190602001908083835b602083101515610ffb5780518252602082019150602081019050602083039250610fd6565b6001836020036101000a03801982511681845116808217855250505050505090500182805190602001908083835b60208310151561104e5780518252602082019150602081019050602083039250611029565b6001836020036101000a038019825116818451168082178552505050505050905001925050506040518091039020915050919050565b6000806000806000600460020154600190046004600101546001900401600460000160009054906101000a900460ff1660ff160193506110c26109b4565b848115156110cc57fe5b06925060009150600090505b61111a6001828154811015156110ea57fe5b9060005260206000200160009054906101000a900473ffffffffffffffffffffffffffffffffffffffff16610883565b8201915060018101905082821015611131576110d8565b600180820381548110151561114257fe5b9060005260206000200160009054906101000a900473ffffffffffffffffffffffffffffffffffffffff1694505050505090565b60018181548110151561118557fe5b906000526020600020016000915054906101000a900473ffffffffffffffffffffffffffffffffffffffff1681565b606080604051908101604052808560ff168152602001846000191681526020018360001916815250600460008201518160000160006101000a81548160ff021916908360ff16021790555060208201518160010190600019169055604082015181600201906000191690559050506112796004606060405190810160405290816000820160009054906101000a900460ff1660ff1660ff1681526020016001820154600019166000191681526020016002820154600019166000191681525050610a57565b90509392505050565b60035481565b600061129261156d565b6060604051908101604052808660ff16815260200185600019168152602001846000191681525090506112c6878783610ec5565b91505095945050505050565b6000809054906101000a900473ffffffffffffffffffffffffffffffffffffffff1681565b606061130c836113078585611314565b61138d565b905092915050565b600080600090505b835181101561138557838181518110151561133357fe5b9060200190602002015173ffffffffffffffffffffffffffffffffffffffff168373ffffffffffffffffffffffffffffffffffffffff16141561137857809150611386565b808060010191505061131c565b5b5092915050565b60608060008451841015156113a1576114db565b60018551036040519080825280602002602001820160405280156113d45781602001602082028038833980820191505090505b509150600090505b81518110156114d3578381141580156113f457508381105b1561146057848181518110151561140757fe5b90602001906020020151828281518110151561141f57fe5b9060200190602002019073ffffffffffffffffffffffffffffffffffffffff16908173ffffffffffffffffffffffffffffffffffffffff16815250506114c6565b846001820181518110151561147157fe5b90602001906020020151828281518110151561148957fe5b9060200190602002019073ffffffffffffffffffffffffffffffffffffffff16908173ffffffffffffffffffffffffffffffffffffffff16815250505b80806001019150506113dc565b606094508192505b505092915050565b82805482825590600052602060002090810192821561155c579160200282015b8281111561155b5782518260006101000a81548173ffffffffffffffffffffffffffffffffffffffff021916908373ffffffffffffffffffffffffffffffffffffffff16021790555091602001919060010190611503565b5b5090506115699190611598565b5090565b606060405190810160405280600060ff16815260200160008019168152602001600080191681525090565b6115d891905b808211156115d457600081816101000a81549073ffffffffffffffffffffffffffffffffffffffff02191690555060010161159e565b5090565b90565b60006115e78235611d46565b905092915050565b60006115fb8251611d66565b905092915050565b600061160f8235611d72565b905092915050565b600082601f830112151561162a57600080fd5b813561163d61163882611cc2565b611c95565b9150808252602083016020830185838301111561165957600080fd5b611664838284611db7565b50505092915050565b60006060828403121561167f57600080fd5b6116896060611c95565b90506000611699848285016116f5565b60008301525060206116ad84828501611603565b60208301525060406116c184828501611603565b60408301525092915050565b60006116d98235611d7c565b905092915050565b60006116ed8251611d7c565b905092915050565b60006117018235611d86565b905092915050565b60006020828403121561171b57600080fd5b6000611729848285016115db565b91505092915050565b600080600060a0848603121561174757600080fd5b6000611755868287016115db565b935050602084013567ffffffffffffffff81111561177257600080fd5b61177e86828701611617565b925050604061178f8682870161166d565b9150509250925092565b600080600080600060a086880312156117b157600080fd5b60006117bf888289016115db565b955050602086013567ffffffffffffffff8111156117dc57600080fd5b6117e888828901611617565b94505060406117f9888289016116f5565b935050606061180a88828901611603565b925050608061181b88828901611603565b9150509295509295909350565b60006020828403121561183a57600080fd5b6000611848848285016115ef565b91505092915050565b6000806000806080858703121561186757600080fd5b600061187587828801611603565b9450506020611886878288016116f5565b935050604061189787828801611603565b92505060606118a887828801611603565b91505092959194509250565b6000602082840312156118c657600080fd5b600082013567ffffffffffffffff8111156118e057600080fd5b6118ec84828501611617565b91505092915050565b6000806000806080858703121561190b57600080fd5b600085013567ffffffffffffffff81111561192557600080fd5b61193187828801611617565b9450506020611942878288016116f5565b935050604061195387828801611603565b925050606061196487828801611603565b91505092959194509250565b60006060828403121561198257600080fd5b60006119908482850161166d565b91505092915050565b6000602082840312156119ab57600080fd5b60006119b9848285016116cd565b91505092915050565b6000602082840312156119d457600080fd5b60006119e2848285016116e1565b91505092915050565b600080600060608486031215611a0057600080fd5b6000611a0e868287016116f5565b9350506020611a1f86828701611603565b9250506040611a3086828701611603565b9150509250925092565b611a4381611cf9565b82525050565b611a5281611d19565b82525050565b611a6181611d25565b82525050565b6000611a7282611cee565b808452611a86816020860160208601611dc6565b611a8f81611df9565b602085010191505092915050565b611aa681611d93565b82525050565b611ab581611da5565b82525050565b611ac481611d2f565b82525050565b611ad381611d39565b82525050565b6000602082019050611aee6000830184611a3a565b92915050565b6000606082019050611b096000830186611a3a565b611b166020830185611a9d565b611b236040830184611abb565b949350505050565b6000602082019050611b406000830184611a49565b92915050565b6000602082019050611b5b6000830184611a58565b92915050565b6000608082019050611b766000830187611a58565b611b836020830186611aca565b611b906040830185611a58565b611b9d6060830184611a58565b95945050505050565b60006020820190508181036000830152611bc08184611a67565b905092915050565b6000606082019050611bdd6000830186611a9d565b611bea6020830185611a3a565b611bf76040830184611abb565b949350505050565b6000604082019050611c146000830185611a9d565b611c216020830184611abb565b9392505050565b6000602082019050611c3d6000830184611aac565b92915050565b6000602082019050611c586000830184611abb565b92915050565b6000606082019050611c736000830186611aca565b611c806020830185611a58565b611c8d6040830184611a58565b949350505050565b6000604051905081810181811067ffffffffffffffff82111715611cb857600080fd5b8060405250919050565b600067ffffffffffffffff821115611cd957600080fd5b601f19601f8301169050602081019050919050565b600081519050919050565b600073ffffffffffffffffffffffffffffffffffffffff82169050919050565b60008115159050919050565b6000819050919050565b6000819050919050565b600060ff82169050919050565b600073ffffffffffffffffffffffffffffffffffffffff82169050919050565b60008115159050919050565b6000819050919050565b6000819050919050565b600060ff82169050919050565b6000611d9e82611cf9565b9050919050565b6000611db082611cf9565b9050919050565b82818337600083830152505050565b60005b83811015611de4578082015181840152602081019050611dc9565b83811115611df3576000848401525b50505050565b6000601f19601f83011690509190505600a265627a7a72305820365567ce570c2b4f991e8c286608a90a39704f4625ba2b33c7f30b605cbe6f426c6578706572696d656e74616cf50037",
  "source": "pragma solidity ^0.4.23;\npragma experimental ABIEncoderV2;\nimport \"openzeppelin-solidity/contracts/token/ERC20/ERC20.sol\";\nimport \"./Depositable.sol\";\nimport \"./utils/ECDSA.sol\";\n\ncontract EllipitcoinStakingContract is Depositable, ECDSA {\n  bytes32 public blockHash;\n  Signature public lastSignature;\n\n  constructor(ERC20 _token, bytes32 randomSeed) Depositable(_token) public {\n    lastSignature = Signature(0, randomSeed, randomSeed);\n  }\n\n  function echoSignature(uint8 v, bytes32 r, bytes32 s) public returns (bytes){\n    lastSignature = Signature(v,r,s);\n    return signatureToBytes(lastSignature);\n  }\n\n  function submitBlock(bytes32 _blockHash, uint8 v, bytes32 r, bytes32 s) public {\n    Signature memory signature = Signature(v,r,s); \n    require(msg.sender == winner());\n    require(verifySignature(msg.sender, lastSignatureBytes(), signature));\n    blockHash = _blockHash;\n    lastSignature = signature;\n  }\n\n  function winner() public view returns (address) {\n    uint randomUint = lastSignature.v + (uint(lastSignature.r) + uint(lastSignature.s));\n    uint winningValue = randomUint % totalStake();\n    uint value = 0;\n    uint i = 0;\n    do {\n      value += balanceOf(addresses[i]);\n      i += 1;\n    } while (value < winningValue);\n\n    return addresses[i - 1];\n  }\n\n  function lastSignatureBytes() public view returns(bytes) {\n    return signatureToBytes(lastSignature);\n  }\n}\n",
  "sourcePath": "/Users/masonf/src/ellipticoin-staking-contract/contracts/EllipitcoinStakingContract.sol",
  "compiler": {
    "name": "solc",
    "version": "0.4.23+commit.124ca40d.Emscripten.clang"
  },
  "schemaVersion": "2.0.0",
  "updatedAt": "2018-05-24T20:06:07.704Z"
}